:100000001DC02CC02BC02AC029C081C127C026C05A
:1000100025C024C023C022C021C020C01FC00000B2
:100020000000370000000000380002020202020255
:1000300001020408102001020000040011241FBE68
:10004000CFE5D2E0DEBFCDBF20E0A0E6B0E001C04A
:100050001D92AB36B207E1F7B0D145C2D1CF87FFD1
:1000600011C08F7741F0813041F0823041F0833010
:1000700041F08FEF07C085E005C082E003C084E057
:1000800001C083E090E0FC01EA5CFF4F2491FC0199
:10009000E05DFF4F3491FC01E65DFF4FE491EE23FC
:1000A00009F43BC0222311F1213031F48AB58F7756
:1000B0008ABD8AB58F7B07C0223039F48AB58F7D1F
:1000C0008ABD8AB58F7E8ABD11C0233039F480B7CE
:1000D0008F7D80BF80B78F7E80BF08C0243031F411
:1000E0008CB58F7D8CBD8CB58F7E8CBDF0E0EE0F16
:1000F000FF1FEC5DFF4FA591B491611108C09FB740
:10010000F8948C91309538233C939FBF08958FB716
:10011000F894EC913E2B3C938FBF0895CF93DF93DF
:1001200087FF11C08F7741F0813041F0823041F07C
:10013000833041F08FEF07C085E005C082E003C047
:1001400084E001C083E090E0FC01E05DFF4F24917A
:10015000FC01E65DFF4F8491882361F190E0880FF8
:10016000991FFC01E25EFF4FC591D491FC01EC5D4B
:10017000FF4FA591B491611109C09FB7F894888190
:10018000209582238883EC912E230BC0623061F48A
:100190009FB7F8948881322F309583238883EC9120
:1001A0002E2B2C939FBF06C08FB7F894E8812E2B7F
:1001B00028838FBFDF91CF9108953FB7F894809146
:1001C000670090916800A0916900B0916A0022B721
:1001D00008B601FE05C02F3F19F00196A11DB11D03
:1001E0003FBFBA2FA92F982F8827820F911DA11DDD
:1001F000B11DBC01CD0143E0660F771F881F991F19
:100200004A95D1F70895CF92DF92EF92FF92CF9364
:10021000DF936B017C01D1DFEB01C114D104E10458
:10022000F10499F0CADF6C1B7D0B683E7340A8F3A4
:10023000C114D104E104F10481F381E0C81AD108AA
:10024000E108F108C851DC4FEDCFDF91CF91FF906D
:10025000EF90DF90CF900895CF93DF93EC011C16C1
:100260001D0694F46AE972E080E090E0CCDF61E082
:1002700081E0F5DE6DE471E080E090E0C4DF60E0F5
:1002800081E0EDDE2197EBCFDF91CF910895FF92D2
:100290000F931F93CF93DF936AE070E013D1EC01CB
:1002A000219600E010E083E0F82E1C161D0644F5B0
:1002B00064E670E080E090E0A6DFF7B887B187B928
:1002C000369A3699FECF84B125B190E0922B8432D4
:1002D00091054CF08739910554F08B3F910554F40A
:1002E00002E010E009C00115110541F005C001E070
:1002F00010E002C003E010E0C0E0D0E02197D5CFCD
:10030000C801DF91CF911F910F91FF9008951F9227
:100310000F920FB60F9211242F933F938F939F93B9
:10032000AF93BF938091630090916400A0916500AA
:10033000B09166003091620026E0230F2D3730F037
:1003400029E8230F0396A11DB11D03C00296A11D2C
:10035000B11D209362008093630090936400A0938A
:100360006500B09366008091670090916800A0914D
:100370006900B0916A000196A11DB11D80936700CC
:1003800090936800A0936900B0936A00BF91AF9109
:100390009F918F913F912F910F900FBE0F901F90C3
:1003A000189564EF71E080E090E02DDF60E081E07F
:1003B00056DE60E084E053DEFFCF81B781BF8AB5AF
:1003C00082608ABD8AB581608ABD83B7887F836079
:1003D00083BF789489B7826089BF80B7807F80BFF0
:1003E00080B7806880BF8CB580648CBD8FEF8DBD79
:1003F00080B7876080BF86B18877866886B9379A6C
:1004000061E081E08BDE61E084E088DE60E083E033
:1004100085DE62E370E080E090E0F5DE60E081E0A0
:100420001EDE65E070E080E090E0EDDE61E084E0FB
:1004300016DE65E070E080E090E0E5DE80E090E0D0
:1004400026DF0ADF68EE73E080E090E0DCDE80E02B
:1004500090E01DDF0097A9F18330910551F4809160
:10046000600090916100019690936100809360001C
:1004700001C0F2DE8091600090916100059714F355
:1004800061E081E0ECDD80E090E001DF1816190604
:10049000D4F38AE090E0FBDEEC0160E081E0DFDD98
:1004A000209779F0CE01D8DE64EF71E080E090E033
:1004B000AADE61E081E0D3DD60E177E280E090E0F8
:1004C000A2DE6FDF0024552704C0080E591F880FD5
:1004D000991F009729F076956795B8F37105B9F7DC
:0A04E000802D952F0895F894FFCFAA
:00000001FF
