:1000000020C02FC02EC02DC02CC011C22AC029C0B4
:1000100028C027C026C025C024C023C022C000009D
:10002000000037000000000038000000000036002B
:100030000202020202020102040810200102000072
:10004000040011241FBECFE5D2E0DEBFCDBF21E00A
:10005000A0E6B0E001C01D92AD36B207E1F778D25C
:1000600002C4CECF813031F48AB58F778ABD8AB58C
:100070008F7B07C0823039F48AB58F7D8ABD8AB5FF
:100080008F7E8ABD0895833039F480B78F7D80BF1D
:1000900080B78F7E80BF0895843031F48CB58F7D1A
:1000A0008CBD8CB58F7E8CBD08951F93CF93DF934D
:1000B000162F87FF11C08F7741F0813041F08230D9
:1000C00041F0833041F08FEF07C085E005C082E04A
:1000D00003C084E001C083E0282F30E0F901E45C34
:1000E000FF4F8491F901EA5CFF4FD491F901E05D83
:1000F000FF4FC491CC23D1F08111B4DFEC2FF0E09D
:10010000EE0FFF1FEC5DFF4FA591B491111108C0D8
:100110009FB7F8948C91D095D823DC939FBF06C0ED
:100120008FB7F894EC91DE2BDC938FBFDF91CF91EA
:100130001F910895CF93DF9387FF11C08F7741F010
:10014000813041F0823041F0833041F08FEF07C0C1
:1001500085E005C082E003C084E001C083E090E058
:10016000FC01EA5CFF4F2491FC01E05DFF4F8491AC
:10017000882361F190E0880F991FFC01E25EFF4F38
:10018000C591D491FC01EC5DFF4FA591B491611133
:1001900009C09FB7F8948881209582238883EC91C9
:1001A0002E230BC0623061F49FB7F8948881322F00
:1001B000309583238883EC912E2B2C939FBF06C010
:1001C0008FB7F894E8812E2B28838FBFDF91CF91D2
:1001D00008953FB7F8948091690190916A01A091C8
:1001E0006B01B0916C0122B708B601FE05C02F3F2C
:1001F00019F00196A11DB11D3FBFBA2FA92F982F4D
:100200008827820F911DA11DB11DBC01CD0143E0C6
:10021000660F771F881F991F4A95D1F70895CF92CF
:10022000DF92EF92FF92CF93DF936B017C01D1DFDE
:10023000EB01C114D104E104F10499F0CADF6C1B95
:100240007D0B683E7340A8F3C114D104E104F104AE
:1002500081F381E0C81AD108E108F108C851DC4FE8
:10026000EDCFDF91CF91FF90EF90DF90CF90089589
:10027000FF920F931F93CF93DF936AE070E0E2D277
:10028000EC01219600E010E083E0F82E1C161D061C
:1002900044F564E670E080E090E0C1DFF7B887B134
:1002A00087B9369A3699FECF84B125B190E0922B6A
:1002B000843291054CF08739910554F08B3F9105BC
:1002C00054F402E010E009C00115110541F005C029
:1002D00001E010E002C003E010E0C0E0D0E02197B0
:1002E000D5CFC801DF91CF911F910F91FF90089555
:1002F000FF920F931F93CF93DF938C01D0B761E0F0
:1003000080E018DF60E080E0D0DE6AE070E080E04E
:1003100090E085DF84E480BF87E38DBD84E28EBDFD
:1003200080B78F7E80BF60E081E0BFDE01501109A1
:10033000102F002710926101C0916101C7FD1BC001
:10034000C8016AD2F82E0E5F1F4FC801019764D210
:1003500091E09C0F90936101EC2FF0E0EE0FFF1FF6
:10036000E05AFF4F2F2D30E0322F2227280F311D6A
:1003700031832083E1CFF8948091600181BF109296
:100380006101E0916101E7FD40C0F0E0EE0FFF1F69
:10039000E05AFF4F8081918197FF14C080B78F7E14
:1003A00080BFE0916101F0E0EE0FFF1FE05AFF4FC8
:1003B000808191818F3F2FEF920739F19F77918351
:1003C000808303C080B7806180BF88B7846088BFA6
:1003D00020916101822F90E0880F991FFC01E05A63
:1003E000FF4F408151814115510559F008B602FE79
:1003F000FACFFC01E05AFF4F41505109518340832D
:10040000E4CF2F5F20936101BCCF80B78F7E80BF88
:1004100060E081E04ADED0BF789468EC70E080E074
:1004200090E0DF91CF911F910F91FF90F8CE1F9236
:100430000F920FB60F9211242F933F938F939F9398
:10044000AF93BF938091650190916601A091670180
:10045000B09168013091640126E0230F2D3730F010
:1004600029E8230F0396A11DB11D03C00296A11D0B
:10047000B11D209364018093650190936601A09360
:100480006701B09368018091690190916A01A09120
:100490006B01B0916C010196A11DB11D80936901A2
:1004A00090936A01A0936B01B0936C01BF91AF91DF
:1004B0009F918F913F912F910F900FBE0F901F90A2
:1004C0001895CF93DF9387FF11C08F7741F081306C
:1004D00041F0823041F0833041F08FEF07C085E07A
:1004E00005C082E003C084E001C083E0282F30E033
:1004F000F901E45CFF4F8491F901EA5CFF4FD4916C
:10050000F901E05DFF4FC491CC2389F08111AADD90
:10051000EC2FF0E0EE0FFF1FE65DFF4FA591B491C9
:10052000EC91ED2381E090E021F480E002C080E0D6
:1005300090E0DF91CF91089564EF71E080E090E06A
:100540006EDE60E081E0B1DD60E084E0AEDDFFCF33
:1005500081B781BF8AB582608ABD8AB581608ABD54
:1005600083B7887F836083BF789489B7826089BFAF
:1005700080B7807F80BF80B7806880BF8CB5806483
:100580008CBD8FEF8DBD80B7876080BF86B18877C7
:10059000866886B9379A81B78093600161E084E00C
:1005A000C9DD61E084E081DD60E082E0C3DD60E020
:1005B00083E0C0DD61E081E0BDDD60E080E0BADDC8
:1005C00060E080E072DD62E082E0B4DD65E070E072
:1005D00080E090E024DE60E081E067DD65E070E0CF
:1005E00080E090E01CDE80B78F7E80BF62E370E029
:1005F00080E090E014DE80E090E03ADEEC016EE511
:1006000071E080E090E00BDEC330D10514F4CE0140
:100610006FDE80E090E02CDE009709F4FCC08330B0
:10062000910579F480916201909163010196909314
:1006300063018093620168EE73E080E090E0EFDD9B
:1006400001C056DE809162019091630105970CF321
:1006500065E070E080E090E0E2DD61E081E025DDD2
:1006600080E090E005DE18161906D4F38AE090E0E9
:10067000FFDDEC0160E081E018DD209709F4CBC0DC
:100680008E01101611069CF46AE972E080E090E099
:10069000C6DD61E081E009DD6DE471E080E090E0BD
:1006A000BEDD60E081E001DD01501109EACF64EFB9
:1006B00071E080E090E0B3DDF89484E480BF87E3EC
:1006C0008DBD84E28EBD60E080E034DD62E082E0DA
:1006D00031DD80B78F7E80BF109261018091600113
:1006E00081BF61E081E0E1DC82E0EBDE0197E1F3D4
:1006F00000E010E8EE24EA94FE2CE0916101E7FDB1
:1007000065C0F0E0EE0FFF1FE05AFF4F118210822C
:1007100088B7846088BF82E0D4DE892B81F408B674
:1007200002FEF9CFE0916101F0E0EE0FFF1FE05A09
:10073000FF4F80819181019691838083E9CFE09181
:100740006101EF5FE0936101F0E0EE0FFF1FE05AFF
:10075000FF4F1183008388B7846088BF82E0B1DED9
:10076000019771F508B602FEF9CFE0916101F0E062
:10077000EE0FFF1FE05AFF4F808191810196918318
:10078000808388B7846088BF80916101E82FF0E0A2
:10079000EE0FFF1FE05AFF4F208131812130304999
:1007A000E8F287FF03C0809361010AC0E82FF0E000
:1007B000EE0FFF1FE05AFF4FF182E0828F5FF1CF13
:1007C000809161018F5F8093610197CF10926101E9
:1007D0002197DC2FCC27E0916101E7FD19C0F0E003
:1007E000EE0FFF1FE05AFF4F6181CE011DD0E09157
:1007F000610181E08E0F809361012296F0E0EE0F9F
:10080000FF1FE05AFF4F6081CE0101970DD0E3CF6B
:1008100060E081E04ADC90DEE199FECF9FBB8EBBB9
:10082000E09A99278DB30895262FE199FECF1CBA3F
:100830009FBB8EBB2DBB0FB6F894E29AE19A0FBE18
:10084000019608950024552704C0080E591F880FEB
:10085000991F009729F076956795B8F37105B9F758
:0A086000802D952F0895F894FFCF26
:00000001FF
